{
	"data": {
		"bytecode": {
			"linkReferences": {},
			"object": "608060405234801561001057600080fd5b506000808190555060e2806100266000396000f3fe6080604052348015600f57600080fd5b506004361060465760003560e01c80635b34b96614604b5780638ada066e146053578063d826f88f14606f578063f5c5ad83146077575b600080fd5b6051607f565b005b6059608d565b6040518082815260200191505060405180910390f35b60756096565b005b607d609f565b005b600160005401600081905550565b60008054905090565b60008081905550565b60016000540360008190555056fea265627a7a723158203a7242bb37d1599e30c57762e64b38a9c768d1413af2d23cef3416f5936d2cbd64736f6c63430005110032",
			"opcodes": "PUSH1 0x80 PUSH1 0x40 MSTORE CALLVALUE DUP1 ISZERO PUSH2 0x10 JUMPI PUSH1 0x0 DUP1 REVERT JUMPDEST POP PUSH1 0x0 DUP1 DUP2 SWAP1 SSTORE POP PUSH1 0xE2 DUP1 PUSH2 0x26 PUSH1 0x0 CODECOPY PUSH1 0x0 RETURN INVALID PUSH1 0x80 PUSH1 0x40 MSTORE CALLVALUE DUP1 ISZERO PUSH1 0xF JUMPI PUSH1 0x0 DUP1 REVERT JUMPDEST POP PUSH1 0x4 CALLDATASIZE LT PUSH1 0x46 JUMPI PUSH1 0x0 CALLDATALOAD PUSH1 0xE0 SHR DUP1 PUSH4 0x5B34B966 EQ PUSH1 0x4B JUMPI DUP1 PUSH4 0x8ADA066E EQ PUSH1 0x53 JUMPI DUP1 PUSH4 0xD826F88F EQ PUSH1 0x6F JUMPI DUP1 PUSH4 0xF5C5AD83 EQ PUSH1 0x77 JUMPI JUMPDEST PUSH1 0x0 DUP1 REVERT JUMPDEST PUSH1 0x51 PUSH1 0x7F JUMP JUMPDEST STOP JUMPDEST PUSH1 0x59 PUSH1 0x8D JUMP JUMPDEST PUSH1 0x40 MLOAD DUP1 DUP3 DUP2 MSTORE PUSH1 0x20 ADD SWAP2 POP POP PUSH1 0x40 MLOAD DUP1 SWAP2 SUB SWAP1 RETURN JUMPDEST PUSH1 0x75 PUSH1 0x96 JUMP JUMPDEST STOP JUMPDEST PUSH1 0x7D PUSH1 0x9F JUMP JUMPDEST STOP JUMPDEST PUSH1 0x1 PUSH1 0x0 SLOAD ADD PUSH1 0x0 DUP2 SWAP1 SSTORE POP JUMP JUMPDEST PUSH1 0x0 DUP1 SLOAD SWAP1 POP SWAP1 JUMP JUMPDEST PUSH1 0x0 DUP1 DUP2 SWAP1 SSTORE POP JUMP JUMPDEST PUSH1 0x1 PUSH1 0x0 SLOAD SUB PUSH1 0x0 DUP2 SWAP1 SSTORE POP JUMP INVALID LOG2 PUSH6 0x627A7A723158 KECCAK256 GASPRICE PUSH19 0x42BB37D1599E30C57762E64B38A9C768D1413A CALLCODE 0xD2 EXTCODECOPY 0xEF CALLVALUE AND CREATE2 SWAP4 PUSH14 0x2CBD64736F6C6343000511003200 "
		},
		"gasEstimates": {
			"creation": {
				"codeDepositCost": "45200",
				"executionCost": "5113",
				"totalCost": "50313"
			},
			"external": {
				"decrementCounter()": "21008",
				"getCounter()": "1013",
				"incrementCounter()": "20942",
				"reset()": "5180"
			}
		},
		"methodIdentifiers": {
			"decrementCounter()": "f5c5ad83",
			"getCounter()": "8ada066e",
			"incrementCounter()": "5b34b966",
			"reset()": "d826f88f"
		}
	},
	"abi": [
		{
			"inputs": [],
			"payable": false,
			"stateMutability": "nonpayable",
			"type": "constructor"
		},
		{
			"constant": false,
			"inputs": [],
			"name": "decrementCounter",
			"outputs": [],
			"payable": false,
			"stateMutability": "nonpayable",
			"type": "function"
		},
		{
			"constant": true,
			"inputs": [],
			"name": "getCounter",
			"outputs": [
				{
					"internalType": "int256",
					"name": "",
					"type": "int256"
				}
			],
			"payable": false,
			"stateMutability": "view",
			"type": "function"
		},
		{
			"constant": false,
			"inputs": [],
			"name": "incrementCounter",
			"outputs": [],
			"payable": false,
			"stateMutability": "nonpayable",
			"type": "function"
		},
		{
			"constant": false,
			"inputs": [],
			"name": "reset",
			"outputs": [],
			"payable": false,
			"stateMutability": "nonpayable",
			"type": "function"
		}
	]
}